{
  "contractName": "Election",
  "abi": [
    {
      "constant": true,
      "inputs": [],
      "name": "candidate",
      "outputs": [
        {
          "internalType": "string",
          "name": "",
          "type": "string"
        }
      ],
      "payable": false,
      "stateMutability": "view",
      "type": "function"
    },
    {
      "constant": false,
      "inputs": [],
      "name": "Electio",
      "outputs": [],
      "payable": false,
      "stateMutability": "nonpayable",
      "type": "function"
    }
  ],
  "bytecode": "0x608060405234801561001057600080fd5b5061028e806100206000396000f3fe608060405234801561001057600080fd5b50600436106100365760003560e01c80636c8381f81461003b5780639752648c146100be575b600080fd5b6100436100c8565b6040518080602001828103825283818151815260200191508051906020019080838360005b83811015610083578082015181840152602081019050610068565b50505050905090810190601f1680156100b05780820380516001836020036101000a031916815260200191505b509250505060405180910390f35b6100c6610166565b005b60008054600181600116156101000203166002900480601f01602080910402602001604051908101604052809291908181526020018280546001816001161561010002031660029004801561015e5780601f106101335761010080835404028352916020019161015e565b820191906000526020600020905b81548152906001019060200180831161014157829003601f168201915b505050505081565b6040518060400160405280600a81526020017f43616e6469646174203100000000000000000000000000000000000000000000815250600090805190602001906101b19291906101b4565b50565b828054600181600116156101000203166002900490600052602060002090601f016020900481019282601f106101f557805160ff1916838001178555610223565b82800160010185558215610223579182015b82811115610222578251825591602001919060010190610207565b5b5090506102309190610234565b5090565b61025691905b8082111561025257600081600090555060010161023a565b5090565b9056fea265627a7a72315820e827475c22e2e17867732bb4e28900c5b6e0047cb9225c35e48a551cdbebc2b564736f6c63430005100032",
  "source": "pragma solidity >=0.4.16 <0.9.0;\r\n\r\ncontract Election{\r\n\r\n    string public candidate;\r\n\r\n    function Electio( ) public{\r\n        candidate = \"Candidat 1\";\r\n\r\n    }\r\n}\r\n",
  "sourcePath": "C:\\Users\\god\\election\\contracts\\Election.sol",
  "compiler": {
    "name": "solc",
    "version": "0.5.16+commit.9c3226ce.Emscripten.clang"
  },
  "schemaVersion": "3.4.12",
  "updatedAt": "2023-02-19T01:44:42.974Z",
  "networkType": "ethereum",
  "devdoc": {
    "methods": {}
  },
  "userdoc": {
    "methods": {}
  }
}